:100000006DC091C065C68FC0C5C50EC68CC08BC003
:100010008AC089C088C087C086C085C084C00902E4
:1000200043000201008032090400000102020100C5
:100030000524001001042402020524060001052401
:10004000010301070583030800FF09040100020AF8
:1000500000000007050102080000070581020800F2
:1000600000220344006900670069007300700061AA
:100070000072006B0020005300650072006900618F
:10008000006C001C03640069006700690073007461
:100090000075006D0070002E0063006F006D00049D
:1000A0000309041201100102000008D0167E0800A6
:1000B00001010200010037003801010101010101C5
:1000C0000204081020415474696E7954524E47203E
:1000D000762E342D323032330000860811241FBEB4
:1000E000CFE5D2E0DEBFCDBF21E0ACE7B0E001C09C
:1000F0001D92A934B207E1F710E0A0E6B0E0E6E413
:10010000F1E102C005900D92AC37B107D9F710E0CC
:10011000CEE6D0E003C02197FE010DD8CD36D10741
:10012000D1F705D70EC86CCF282F30E0F901E15484
:10013000FF4F9491F901E754FF4FE491EE23A1F0B2
:10014000811113C08AB58F738ABDF0E0E954FF4F67
:10015000A491B0E08FB7611113C0F8942C91E92FEE
:10016000E095E223EC938FBF0895813019F48AB5AE
:100170008F7CEACF843049F78CB58F7C8CBDE5CF7E
:10018000F894EC91E92BEECF863008F0865097B1C9
:100190009F7297B997B1907F892B87B9369A369914
:1001A000FECF84B195B10895CF92DF92EF92FF9286
:1001B0000F931F93CF93DF936C01EB017B01E40E50
:1001C000F51E10E000E0CE15DF0561F06991D60163
:1001D000ED91FC910190F081E02DC6010995080F89
:1001E000191FF1CFC801DF91CF911F910F91FF909F
:1001F000EF90DF90CF9008952FB7F8948091CD00C5
:100200009091CE002FBF892B39F0E091C500F0917D
:10021000C600808190E0089590E080E00895F89411
:10022000E3ECF0E083EA90E0918380839383828320
:100230009583848383EC90E09783868380E290E0CB
:100240009187808713861286789408950F931F9361
:10025000CF93DF93CDB7DEB728970FB6F894DEBF04
:100260000FBECDBF19821A828A81883008F094C0EF
:1002700082E590E0FC0180818F831B821C821D82BD
:100280001E828B819C81AD81BE814497A105B10501
:1002900008F03EC080919100882F90E0982F882729
:1002A0009295990F907E982F809191008927809345
:1002B000910080919100882F90E021E130E002C010
:1002C000959587952A95E2F7982F80919100892737
:1002D0008093910080919100882F90E0182F1695BF
:1002E00016951695082F0295000F007E902F80918D
:1002F00091008927809391008B819C81AD81BE8183
:100300000196A11DB11D8B839C83AD83BE83B9CFA4
:1003100082E590E0FC0190818F81F92FF81B8F2FEF
:1003200088878885882309F5809190008F5F809366
:100330009000809190008430D0F080918F008F5F8A
:1003400080938F0080918F00873088F061E081E09A
:10035000EBDE85E590E0FC018081877E282F20611F
:1003600085E590E0FC01208302C010929000888512
:10037000882F90E0817099272A81222F30E002C0D7
:10038000880F991F2A95E2F7982F8981892B8983F5
:100390008A818F5F8A8368CF90918E0089818927B7
:1003A00080938E0080918E0028960FB6F894DEBF61
:1003B0000FBECDBFDF91CF911F910F910895CF93C5
:1003C000DF9300D000D000D0CDB7DEB786E890E054
:1003D000FC018081882399F480E0D6DE092E000C90
:1003E000AA0BBB0B8093820090938300A0938400A0
:1003F000B093850086E890E021E0FC0120838091A5
:1004000081008F5F809381008091810095E0692F4A
:1004100086D6892F809381001A828A81883008F0DD
:1004200065C080918100B0DE092E000CAA0BBB0BC9
:100430008B839C83AD83BE838091820090918300E7
:10044000A0918400B09185002B813C814D815E811B
:10045000281739074A075B0709F5809180008F5FED
:1004600080938000809180008531D0F080917F0062
:100470008F5F80937F0080917F00873088F061E0FC
:1004800081E052DE85E590E0FC018081877E282FA7
:10049000206185E590E0FC01208302C0109280007D
:1004A0008B819C81AD81BE8180938200909383007B
:1004B000A0938400B09385008B819C81AD81BE8127
:1004C00081709927AA27BB272A81222F30E004C0F8
:1004D000880F991FAA1FBB1F2A95D2F7982F8981D1
:1004E000892B89838A818F5F8A8397CF90917E0041
:1004F0008981892780937E0080917E0026960FB6A1
:10050000F894DEBF0FBECDBFDF91CF9108951F934A
:10051000CF93DF93162FEA01288124FF16C029818B
:1005200038E823272983212FFC01CE010296DC0124
:1005300031913D9321501216DCF3612FB2D31C5F31
:100540001883DF91CF911F9108952AE52883EBCF7F
:10055000CF92DF92EF92FF920F931F93CF93DF938F
:100560008FE99FE00197F1F700C00000809124011E
:10057000835087FD64C090912301ECE0F0E0E91B1B
:10058000F109E95DFE4F90912201903108F011C10F
:1005900030E020E0281708F040C09FB7F894409161
:1005A000CD005091CE009FBF6091CB007091CC00E8
:1005B0006417750779F1DF01A20FB31F9C91A09119
:1005C000C300B091C4009C934091C3005091C400FB
:1005D0004F5F5F4F5093C4004093C3006091C900C8
:1005E0007091CA004617570741F44091C7005091D7
:1005F000C8005093C4004093C3009FB7F894409143
:10060000CD005091CE004F5F5F4F5093CE0040938E
:10061000CD009FBF2F5F3F4FBDCF2FB7F894809184
:10062000CD009091CE002FBF089718F08FEF8093E8
:10063000240180912401181614F410922401809151
:10064000610084FF41C0C0916000CF3F09F43CC00D
:100650008C2FC93008F088E09C2F981B9093600085
:1006600090910A0128E8922790930A01CC2301F186
:1006700090919500C7E097FD1BC0209193003091A9
:10068000940096FF5BC1ABE0B1E0F901982F449173
:100690004D9331969150D9F74FEF480F50E04F5F8F
:1006A0005F4F240F351F3093940020939300C82F81
:1006B0006C2F8BE091E0F5D2CC5FCC3019F08FEF4E
:1006C00080936000C093610084E196B3987131F427
:1006D0008150D9F71092250110922101D1E08111AA
:1006E000D0E090919600D91741F1882321F1F89438
:1006F00008E010E0C0E080E8D82ECD2CCC0EC1BEC2
:10070000D4D27C019CEEE91698E0F9060CF4CC2DCD
:10071000D6940150110989F78FEF8C0F81BF0C2FF0
:1007200010E00F5F1F4F81B78017110609F00CF41E
:100730000EC1C1BF7894D09396002FB7F8948091E2
:10074000F9009091FA002FBF892B09F411C1E091B3
:100750009F00E83008F00CC181E08E0F80939F006D
:10076000F0E0A091F100B091F2002D91B093F20071
:10077000A093F1008091F5009091F600A817B907B9
:1007800041F48091F3009091F4009093F2008093F3
:10079000F1003FB7F8948091F9009091FA00019729
:1007A0009093FA008093F9003FBFE956FF4F2083F2
:1007B000C4CF9D3209F0BBC0883009F03ACF83EC3A
:1007C00080930A018AE580936100109295009081E0
:1007D000892F8076C9F18032A9F5818120EE280F1A
:1007E000223048F48FEF97FD868190E89093950032
:1007F000809360001ECF8232F9F44091A0004F3FF9
:10080000A1F028B381E090E0042E01C0880F0A9483
:10081000EAF780958223228133812170332701C03A
:10082000220F4A95EAF7822B88BB8091A2008111A2
:1008300003C082E08093A200808187FD03C081E035
:100840008093A10080E027C0228110921301918142
:1008500091110AC01092140123E131E082E030933B
:1008600094002093930017C0953029F4209325011C
:1008700023E131E0F4CF963009F040C0938191300C
:1008800099F483EA90E0909394008093930082E13E
:1008900090E49093950097819111AACF9681981733
:1008A00008F0A6CF892FA4CF923041F48EE190E0DA
:1008B000909394008093930083E4EACF933041F7C0
:1008C000211108C08FE990E09093940080939300E9
:1008D00084E0DECF213041F483E890E090939400EF
:1008E000809393008CE1D4CF223091F681E690E0A2
:1008F000909394008093930082E2CACF983081F065
:10090000993019F420939200B3CF9A3069F09B305C
:1009100009F0AECF9BE49093160190933E01A8CFCF
:1009200022E930E081E09BCF23E131E0FBCF8091F1
:10093000950087FF7ECE109260007BCED901EBE060
:10094000F1E0982F4D9141939150E1F7A5CEADD1B3
:100950008C5E984097FF03C09195819591098E1503
:100960009F0514F4C1B77C0181B78F5F81BFDBCED7
:100970008091150184FF0CC08091A100882331F182
:1009800045E151E060E087E990E0C1DD1092A1000F
:100990008091A200882389F090913D0194FF0DC0C1
:1009A0004DE351E0823019F568E082E690E0AFDD7A
:1009B0008091A20081508093A200DF91CF911F917E
:1009C0000F91FF90EF90DF90CF90089560919F007E
:1009D0006623F1F245E151E087E990E098DD10925D
:1009E000240181E08093A10010929F00D1CF62E0AA
:1009F0008AE690E0DCCF4FB7F8942091CD0030919B
:100A0000CE004FBF232B21F4A3DD90E080E00895BA
:100A10009FDDE091C500F091C6008191F093C60082
:100A2000E093C5002091C9003091CA00E217F30796
:100A300041F42091C7003091C8003093C600209344
:100A4000C5009FB7F8942091CD003091CE00215081
:100A500031093093CE002093CD009FBF90E00895E0
:100A600077DD2FB7F8948091CD009091CE002FBF05
:100A700008958F929F92AF92BF92CF92DF92EF92A2
:100A8000FF92CF93DF93EC016A017B012FB7F894BB
:100A90008091060190910701A0910801B091090190
:100AA0002FBF2FB7F8948090060190900701A09077
:100AB0000801B09009012FBFC818D908EA08FB083F
:100AC000C80ED91EEA1EFB1ECE0142DDD501C401AF
:100AD0001C141D041E041F0424F3DF91CF91FF900A
:100AE000EF90DF90CF90BF90AF909F908F90089540
:100AF0004FB7F8942091F9003091FA004FBF409120
:100B0000F7005091F8004217530721F421DD90E0DF
:100B100080E00895E091EF00F091F0006083209173
:100B2000EF003091F0002F5F3F4F3093F0002093A3
:100B3000EF004091F5005091F6002417350741F47D
:100B40002091F3003091F4003093F0002093EF00F7
:100B50004FB7F8942091F9003091FA002F5F3F4F82
:100B60003093FA002093F9004FBF45E050E060E079
:100B700070E07FDF81E090E0089561E081E0D4DA09
:100B800044E150E060E070E08BEF90E072DF60E005
:100B900081E0CACA1F920F920FB60F9211242F93B1
:100BA0003F938F939F93AF93BF9380910601909152
:100BB0000701A0910801B09109013091050123E0DE
:100BC000230F2D3768F126E8230F0296A11DB11DD2
:100BD000209305018093060190930701A0930801DB
:100BE000B09309018091010190910201A09103014C
:100BF000B09104010196A11DB11D80930101909354
:100C00000201A0930301B0930401BF91AF919F91A2
:100C10008F913F912F910F900FBE0F901F901895BD
:100C20000196A11DB11DD4CF1F920F920FB60F9246
:100C300011242F938F939F9380917C0090917D003E
:100C40008F33914079F481E08093000110927D0010
:100C500010927C009F918F912F910F900FBE0F905B
:100C60001F90189580917C0090917D000196909343
:100C70007D0080937C00EECFA82FB92F80E090E01C
:100C800041E050EA609530E009C02D9182279795A8
:100C9000879510F084279527305EC8F36F5FA8F31F
:100CA0000895EADF8D939D930895A6E088279927FC
:100CB000AA9569F00197E1F3B399FCCFB39BFECFFE
:100CC00081E09927A6B3019611F0A871D9F708958C
:100CD000CF93CFB7CF93DF93C395B39BE9F7B39B84
:100CE0000BC0B39B09C0B39B07C0B39B05C0B39BAC
:100CF00003C0B39B01C08EC06F93C0912301DD2759
:100D0000C95DDE4F2F9365E5B39B03C02F916F91B3
:100D1000E6CF0F931F934F9320E040E15F9306B31C
:100D2000087103FB27F93F9350E03BE039C018718D
:100D300040642F77012F5F5F1EC0406816B31871A3
:100D40002F7752501FC0406406B32F770871D1F13E
:100D50005F5F00C023C0406216B32F77187191F116
:100D60005F5F00C025C008711027515012F45D5F0D
:100D70000000115027952C3F16B3C8F618710127B3
:100D8000015027952C3FC8F64227499306B30871B6
:100D900010274F73115027952C3FA8F6469546957E
:100DA00016B3187179F00127015027952C3F98F65A
:100DB0006B5A60F3315006B3B0F600C010E21ABFB0
:100DC00000271CC03B503195C31BD04010E21ABF16
:100DD0000881033C21F10B3411F12091210119818B
:100DE000110F1213EDCF4A81441F093669F10D32FC
:100DF00011F0013E29F74F7009F0042F00932601EE
:100E00003F915F914F911F910F912F916F91CAB7B1
:100E1000C5FD62CFDF91CF91CFBFCF9118952091C3
:100E20002601222369F3109124011123E9F53430BE
:100E3000EAF13093240120932201109123013BE039
:100E4000311B3093230132C000912401013064F53D
:100E50000AE54F7049F43091610034FD28C00093D9
:100E60006100CAE0D1E027C0433049F0309115015C
:100E700034FD1DC000931501C6E1D1E01CC03091C6
:100E80003D0134FD14C000933D01CEE3D1E013C019
:100E9000052710E000C0000008BB1AC0052710E0BD
:100EA000221F1DC010E021C04AE502C032ED432FD1
:100EB000C4E1D0E032E017B31861C39A08B317BB9E
:100EC00058E120E865E320FF052708BB2795179523
:100ED0001C3FF0F66695B8F7B1F720FF052708BB71
:100EE000279517951C3FD0F62795179517FF0527CF
:100EF00000001C3F08BBB0F629913A9519F7077E10
:100F000010912501110FC651D04008BB11F010936C
:100F1000210110E21ABF086017B3177E402F477EE9
:100F200054E05A95F1F708BB17BB48BB69CF81E283
:100F3000E1E0F0E080935700849181BF789480B71E
:100F4000806880BF80B7806480BF8CB580648CBDB2
:100F50008FEF8DBD80B7807F876080BF89B7846049
:100F600089BF83B7887F83BF8AB58C7F81608ABD44
:100F700083B7877F83BF83B7887F836083BF86B152
:100F8000876086B9379AF8941ABC13BE83B7856018
:100F900083BF789412BE89B7826089BFE0ECF0E02D
:100FA0002491EAEBF0E0E491EE2389F08E2F90E0BB
:100FB000FC01EB54FF4FA491B0E089549F4FFC011A
:100FC00084918FB7F894EC91E22BEC938FBF8BEF69
:100FD00090E0BEDAF89488B3877E88BBBB9AFFEFB7
:100FE00024E38CE0F15020408040E1F700C0000095
:100FF000BB98AC9A8BB780628BBF8BE48093160151
:1010000080933E018AE58093150180933D018FEC2A
:1010100090E09093F0008093EF009093F200809323
:10102000F1009093F4008093F3008FEE90E09093A2
:10103000F6008093F50020E230E03093F800209332
:10104000F7001092FA001092F90083EA90E0909372
:10105000C4008093C3009093C6008093C500909312
:10106000C8008093C70083EC90E09093CA008093FF
:10107000C9003093CC002093CB001092CE00109288
:10108000CD001092A2001092A1008FEF8093A000DB
:10109000789444EF51E060E070E08BEF90E0E9DCA1
:1010A000C5ECD0E0FE016491662331F08BEF90E057
:1010B0001FDD2196892BB1F76DE08BEF90E018DDF5
:1010C0006AE08BEF90E014DDC4E148EC50E060E0B2
:1010D00070E08BEF90E0CDDC50DDC150B1F7809136
:1010E0000001882329F049DD1092000168D9AED8AB
:1010F000ADD8C82F64D96C2F68276093FF008BEFA1
:1011000090E0F6DC8BEF90E023DAE9CFEBEFF0E054
:101110001382128280E790E0918380830895991B67
:1011200079E004C0991F961708F0961B881F7A95DE
:10113000C9F780950895EE0FFF1F0590F491E02DFB
:061140000994F894FFCFB2
:10114600FF5AA1200000000002000300000000007A
:0C1156007805D4003005FB04FC000F01FC
:00000001FF
